:10095000E4FDFC7F0112088C1208EF8F12E5126093
:10096000F77F647E00120974E512FD7C007F01129E
:04097000088C80E48B
:10099600EF1FAC0670011E4C600A7D027CEFDCFE88
:0409A600DDFC80EC08
:0109AA00222A
:1008EF00E4F51320B1137F14FE12099630B1FD7F8A
:1008FF00147E0012099675130120B0147F147E0028
:10090F0012099630B0FD7F147E00120996751302FE
:10091F0020B2147F147E0012099630B2FD7F147E30
:10092F000012099675130320B3147F147E00120969
:10093F009630B3FD7F147E00120996751304AF1322
:01094F002285
:0C09AB000A083F065B4F666D7D077F6FFA
:10088C00EF14B4080050549008A175F003A4C5836C
:10089C0025F0C583730208B90208BD0208C102081D
:1008AC00C50208C90208D10208D90208E1D2A48005
:1008BC000ED2A48012D2A48016D2A4801AC2A4D2C2
:1008CC00A3D2A28016C2A4D2A3C2A2800EC2A4C27A
:1008DC00A3D2A28006C2A4C2A3C2A274082DF8E6B9
:0308EC00F5802272
:0509B800007FF7DFFEE7
:0109BD002217
:04097400AD07AC0619
:10097800E4FBFAED25E0FFEC33FEC3EB9FEA9E5063
:0D0988000CB2B61209B80BBB00010A80E6E4
:01099500223F
:03000000020800F3
:0C080000787FE4F6D8FD758113020847EC
:10080C00020950E493A3F8E493A34003F68001F2A9
:10081C0008DFF48029E493A3F85407240CC8C333ED
:10082C00C4540F4420C8834004F456800146F6DFBC
:10083C00E4800B01020408102040809009ABE47E98
:10084C00019360BCA3FF543F30E509541FFEE493B1
:10085C00A360010ECF54C025E060A840B8E493A378
:10086C00FAE493A3F8E493A3C8C582C8CAC583CAA3
:10087C00F0A3C8C582C8CAC583CADFE9DEE780BE5B
:0109B700003F
:00000001FF
