:100A1A007DFF7CEF7BFE7AFD751232EFB40A047516
:100A2A00150122EFB5050475150222EFB504047508
:100A3A00150322EFB5030475150422EFB50203E48A
:020A4A00F515A0
:010A4C002287
:100A9400120A4D120A681209748F13AF99120A1AB6
:020AA40080F4DC
:03000B0002088C5C
:10088C00C0E0C0F0C0D0758A9C758CFF0514E514CF
:10089C0075F0648485F014E514C395125052E51577
:1008AC00B4010ED297D290C296D295C291D29280B8
:1008BC0043E515B40208D297D290D296800BE51579
:1008CC00B4030ED297D290C296C295D291C29280A6
:1008DC0023E515B40408D297D290D296800AE51578
:1008EC007012C297C290C296C295C291C2928004F5
:0B08FC00C297C290D0D0D0F0D0E03204
:030023000209D5FA
:1009D500C0E0C0F0C083C082C0D075D000C000C0E8
:1009E50001C002C003C004C005C006C00730980A94
:1009F5008599A0AF99120AB3C298D007D006D00541
:100A0500D004D003D002D001D000D0D0D082D08382
:050A1500D0F0D0E0323A
:100A7F00EF1FAC0670011E4C600A7D027CEFDCFE9E
:040A8F00DDFC80EC1E
:010A93002240
:10097400E4F51720B1137F14FE120A7F30B1FD7F16
:10098400147E00120A7F75170120B0147F147E00B4
:10099400120A7F30B0FD7F147E00120A7F751702A1
:1009A40020B2147F147E00120A7F30B2FD7F147EC1
:1009B40000120A7F75170320B3147F147E00120AF5
:1009C4007F30B3FD7F147E00120A7F751704AF17C2
:0109D4002200
:0C0AA6000A083F065B4F666D7D077F6FFE
:10090700EF14B40800505490091C75F003A4C58374
:1009170025F0C5837302093402093802093C02092C
:100927004002094402094C02095402095CD2A4801E
:100937000ED2A48012D2A48016D2A4801AC2A4D246
:10094700A3D2A28016C2A4D2A3C2A2800EC2A4C2FE
:10095700A3D2A28006C2A4C2A3C2A274082DF8E63D
:0D096700F5807F017E00120A7FE4F58022FA
:100A68005389F0438901758A9C758CFFC28DD28C9D
:070A7800D2A9D2AFC2B922DE
:100A4D0075985043878053890F438920758BF375B3
:0B0A5D008DF3C2ABD28ED2AFD2AC2220
:080AB3008F993099FDC29922D0
:03000000020800F3
:0C080000787FE4F6D8FD758117020847E8
:10080C00020A94E493A3F8E493A34003F68001F264
:10081C0008DFF48029E493A3F85407240CC8C333ED
:10082C00C4540F4420C8834004F456800146F6DFBC
:10083C00E4800B0102040810204080900AA6E47E9C
:10084C00019360BCA3FF543F30E509541FFEE493B1
:10085C00A360010ECF54C025E060A840B8E493A378
:10086C00FAE493A3F8E493A3C8C582C8CAC583CAA3
:10087C00F0A3C8C582C8CAC583CADFE9DEE780BE5B
:010AB2000043
:00000001FF
